:020000040001F9
:10B0000028320020F5B001000FB1010011B101009C
:10B010000000000000000000000000000000000030
:10B0200000000000000000000000000013B101005B
:10B03000000000000000000015B1010017B1010080
:10B0400095B20100E9B2010019B1010019B1010086
:10B0500019B101000000000019B1010019B101008F
:10B0600019B1010019B10100E5B50100A9B4010051
:10B0700019B1010019B1010019B1010019B10100A4
:10B0800019B1010019B1010019B1010019B1010094
:10B09000BDB4010019B1010019B1010019B10100DD
:10B0A00019B1010019B1010000000000000000000A
:10B0B0000000000000000000000000000000000090
:10B0C0000348854600F056F800480047ADBF010030
:10B0D00028320020401E00BF00BF00BF00BF00BFDD
:10B0E00000BF00BF00BF00BF00BF00BF00BFF1D165
:10B0F000704700000321094802680A4302600848BB
:10B1000002680A4302600748804707480047FEE795
:10B11000FEE7FEE7FEE7FEE7FEE70000240500404D
:10B120005405004045B50100C1B0010003460B4382
:10B130009B0703D009E008C9121F08C0042AFAD2ED
:10B1400003E00B780370401C491C521EF9D2704773
:10B15000D2B201E00270401C491EFBD270470022AF
:10B16000F6E710B513460A4604461946FFF7F0FF06
:10B17000204610BD064C0125064E05E0E36807CCCD
:10B180002B430C3C98471034B442F7D3FFF79CFF95
:10B19000F8E1010018E2010010B500F0CDFF10BD8C
:10B1A000F7B50746002401202E49000415468860A3
:10B1B0002D4EB078002802D02C48FFF7EDFF002F6D
:10B1C00002D12B48FFF7E8FF7068002802D0294819
:10B1D000FFF7E2FF284677600127274D002820D09F
:10B1E000012828D0022824D02448FFF7D5FF24487E
:10B1F000B770002101600199611889B229602E6839
:10B2000020494F606D680068002802D01E48FFF793
:10B21000C3FFA64211D3A54201D3B5421CD31B489C
:10B2200018E0184847606C680760154900200860FE
:10B23000DDE7AC68DBE72C68D9E7B54201D2012035
:10B2400000E00020AC4201D8012100E0002188424A
:10B2500002D10F48FFF7A0FF012002490004486017
:10B2600003B0F0BD00A300403826002073000400A6
:10B27000750004007600040040A500408900040029
:10B2800040A1004040A000409B000400B00004002A
:10B29000C9000400F8B5FF20013000F0CBFF002406
:10B2A00001250E4E0E4F002807D00E4804600120E5
:10B2B000B0607D70002000F013FBFF20053000F02F
:10B2C000B9FF002808D00748001D04600220B060C4
:10B2D000BD70012000F004FBF8BD00000003004039
:10B2E0007C26002000010040F8B55F4C206967789B
:10B2F000401C2061607D002802D05C48FFF74CFFB5
:10B30000204622785A4D00245A495B4E032A3FD1E9
:10B31000CA68002A3CD0012F03D0022F2FD05748F3
:10B320009EE007460069032802D05548FFF734FF26
:10B3300002203870B969491CB96152490C60C11EBC
:10B34000A960514908604B48C460046004614460CE
:10B35000032179707C603C753268117D00290AD028
:10B360004A498B68BB75C461494B01209861494BC0
:10B37000042098608C60D06800283AD1F8BD00693C
:10B38000012802D04448FFF707FF02F08FF9F8BD0B
:10B39000032F64D0012F2ED0022FF6D042783F4BDE
:10B3A0001201D218137B0027002B03D0CB68002B8F
:10B3B00000D00127927A334B02701C60032A48D0D8
:10B3C0000022D243AA60304B02221A60CC600322D2
:10B3D00042700C600C614C60446004753068006918
:10B3E000002800D08047002FD1D030688068002826
:10B3F000CDD08047F8BD0269012A18D0022AF9D1C0
:10B40000CC600C610C601F490C60111FA960082101
:10B410006960032101704460047530680069002888
:10B4200000D08047306880680028E2D1F8BD0C6009
:10B430004C600021C943A960012169603168097D20
:10B44000002902D0134A042151601549C0684860A0
:10B45000F8BD0822D243AA6008226A60B9E7114801
:10B46000FFF79AFEF8BD00001027002090010A00A7
:10B47000001300400011004040260020A9010A00EE
:10B480009F010A000012004080E200E040150040E9
:10B490000010004000F50140A4010A00C8E10100CD
:10B4A00000150040D6010A0010B503220021024811
:10B4B00000F09CFF10BD000000B00040F8B5204D2A
:10B4C0002C468034012080F310886068002832D038
:10B4D00020680C21484340190279310A09021143BE
:10B4E0004279FF231B02120299431A4011438279C9
:10B4F0001B02120499431A401143C2790E02360A04
:10B5000011060E4381688289C08997B200040743FF
:10B510006068401E60602068401C206020680A2827
:10B5200001D300202060002080F310882B683A4669
:10B5300030469847C6E7002080F31088F8BD000029
:10B540003427002010B500F079FB002805D01F49F2
:10B550001D484860C8131E4988611E48018CC9B245
:10B5600001290BD1828C120708D1028D1206120F0D
:10B57000042A03D1828D1206120F0AD0012921D18B
:10B58000818C09071ED1018D0906090F0A2904D0F3
:10B5900007E0114A01219160F5E7828D1206120F32
:10B5A00005D00D290ED1808D0006000F0AD10B4861
:10B5B0000168012904D00A49016001680129FCD110
:10B5C000C021416110BD0000DFFF07C00005004041
:10B5D000006C0040C00F00F00006004000EC064088
:10B5E0007593000070B5012013490004886013486A
:10B5F00000250560124C6068002802D11148FFF751
:10B60000CBFDA570636810480122656042600F4859
:10B610004168006895031430A94205D20325AD03A3
:10B62000A84201D9627005E0814201D3012000E007
:10B6300000206070984770BD00A3004040A100400A
:10B6400038260020EC00040040A0004040A5004047
:10B6500002E008C8121F08C1002AFAD170477047DB
:10B66000002001E001C1121F002AFBD17047000039
:10B67000BFF34F8F04490348C860BFF34F8F00BF2B
:10B68000FDE700000400FA0500ED00E00EB5002122
:10B69000029000916A4601910148FFF7E9FF0EBD53
:10B6A0000140000000B500F005F800BD00B500F055
:10B6B00009F800BD72B602480168491C0160704774
:10B6C000FC25002003490868401E086000D162B6CE
:10B6D00070470000FC250020F0B549488BB0036896
:10B6E0004849494A012B02D04B6B002B05D15368C6
:10B6F0001B78202B01D8012300E00023434D0324B5
:10B700002C700024404A002B146057D08468826853
:10B71000CA623D4A03A901920091C26801232146F1
:10B72000184602F09FF9002824D0012805D00228ED
:10B7300024D003284FD036484BE00398002802D08D
:10B740003448FFF729FD204602F0DEFA002802D136
:10B750003148FFF721FD68680222817D6846002696
:10B76000027001960681468144708170C67002F0B5
:10B770001BF930E02948FFF70FFD2CE00398002863
:10B7800002D12748FFF708FD204602F0BDFA002845
:10B7900002D12448FFF700FD68680222817D039EE4
:10B7A0006846027000236A460196138153814470F3
:10B7B00001278170C77002F0F7F80CE000200090BC
:10B7C000034602460146019002F04CF9042802D0DB
:10B7D0001548FFF7E1FC0C4C2068002807D0012039
:10B7E000607512482061042028700BB0F0BD01F094
:10B7F00013FF00206075206100F01AF80BB0F0BD57
:10B800000014004000150040EC26002024260020F3
:10B81000C8050900B8050900B9050900BD050900FA
:10B82000C0050900C1050900CF050900CDB8010018
:10B8300070B501F0F1FE1C4C00251C4E0120256165
:10B8400030701B481B490069086302F063FA002846
:10B850001FD002F05FFA032802D01748FFF79CFCC4
:10B86000022001F0D5FF002002F04CF802F052FA5D
:10B87000032802D01148FFF78FFC3078012802D04E
:10B880000F48FFF789FC022030700E482561E06008
:10B8900070BD02F0C5F80228E2D302F0C7FA60607A
:10B8A0000028DDD10848D9E7EC2600202426002016
:10B8B0009C2600200015004080050900880509002D
:10B8C00092050900D9B601007B05090010B50349AE
:10B8D00005200870FFF7ACFF10BD000024260020F3
:10B8E00070B5084C050009D010342168002907D034
:10B8F00008682060496828468847F6E70834F4E776
:10B9000070BD00007C260020F0B5454885B0006879
:10B91000012803D04348406B002806D142484068C4
:10B920000078202801D8012500E000253F4C0126A1
:10B930006069002804D100F0A1FF002800D16661F1
:10B9400002F0E8F9012802D03948FFF725FC394810
:10B950004068007D002802D03748FFF71DFC01F049
:10B960005BFE002D57D00121084602F045F905285D
:10B9700040D201007944097949188F4402381D38B2
:10B980003800002702F0B4F90390A689E58902F097
:10B99000B5F90246274869464068837D0F700399D0
:10B9A000019169460E814D814A7000208B70C870EC
:10B9B000684601F0F9FF1DE0002702F099F90390B5
:10B9C000A689E58902F09AF902461A486946406854
:10B9D000837D0F700399019169460E814D814A70F4
:10B9E00001208B70C870684601F0DEFF02E013484A
:10B9F000FFF7D2FB00F0D6FB2061114811494269E4
:10BA000062602378022B01D0002A06D0C06808604B
:10BA1000002000F0FBFB05B0F0BD8068F7E70000F8
:10BA20000014004000150040EC260020D026002025
:10BA3000A806090024260020A9060900C806090056
:10BA40009C2600200427002030B5234D83B0687E5B
:10BA500000283AD000F0B2FE002401280CD000F0FB
:10BA6000F7FE1E48007F002802D1012081074860B0
:10BA7000002002F07FFA6C6001F0CEFDAC706C76B5
:10BA800005216846017001940481448144708470EA
:10BA9000C47001F089FF12481249047003208860C5
:10BAA00002F038F9012812D0022810D003280CD156
:10BAB000002300941A4619461846019401F0D2FF5B
:10BAC000042802D00848FFF767FB03B030BD00210F
:10BAD000084602F091F8F3E7D02600209C260020CB
:10BAE0002426002000F50140E801090010B50222DB
:10BAF0000121132000F0E6FE02220121122000F0B5
:10BB0000E1FE02220121112000F0DCFE02220121CF
:10BB10000E2000F0D7FE022201210D2000F0D2FEFF
:10BB2000022201210C2000F0CDFE032000F0C0FE17
:10BB3000042000F0BDFE052000F0BAFE062000F053
:10BB4000B7FE072000F0B4FE0A2000F0B1FE092085
:10BB500000F0AEFE032000F0BFFE042000F0BCFEAB
:10BB6000052000F0B9FE062000F0B6FE072000F028
:10BB7000B3FE0A2000F0B0FE092000F0ADFE10BDBB
:10BB800070B50021164C0D46425C002A01D065605C
:10BB900070BD491C0629F7DB60681249401C01266C
:10BBA00060608842F4D9104800F0D2FB032000F016
:10BBB0009BFE042000F098FE052000F095FE062074
:10BBC00000F092FE072000F08FFE0A2000F08CFEAD
:10BBD000092000F089FE05486560066070BD000020
:10BBE000E0250020C0D40100A4E1010000050040D0
:10BBF000F8B5114B002106221C460F460C3C455C53
:10BC00005E5CB54208D00C4A0021A760435C5354E7
:10BC1000491C0629FADBF8BD491C9142EFD3A06804
:10BC2000401CA0600528F6D106220349002000F040
:10BC300063FEA760F8BD0000EC2500201048018CD1
:10BC4000C9B2012917D1818C090714D1018D0906C8
:10BC50000A0F03D1828D1206120F0ED0090F01298F
:10BC600003D1828D1206120F07D0032903D1808DD4
:10BC70000006000F01D0002070470120704700002F
:10BC8000C00F00F00268134602E08A4204D0126836
:10BC9000002AFAD10B60016070470000F8B5AA4D88
:10BCA000002068610326AE60A849C8630120C8630C
:10BCB000A74C6069891588436061606900090001CB
:10BCC000801D606160690F210904884331044018B8
:10BCD0006061A069012149068843A061A0694910FB
:10BCE0000843A061A069000A00022030A061A06999
:10BCF000FF2109028843A06196490220086000F0F4
:10BD000055FDE8619448A8616E60944801F056FDC5
:10BD1000934948609348A269417F07231B049A43D3
:10BD200009040A43A2610021036A0A461827D600C3
:10BD30001846F040C0B28507C407ED0F240EAD01D0
:10BD400025434407E40F64012C430507ED0F2D0143
:10BD50002543C406E40FE4002C438506ED0FAD0037
:10BD600025434406E40F64002C43C0092043BC1B58
:10BD7000A040521C0143D2B2042AD8D37448C161F6
:10BD800078480021436A0A46D6001846F040C0B2FF
:10BD9000C407250E8407E40FA4012C434507ED0FCB
:10BDA0006D0125430407E40F24012C43C506ED0F64
:10BDB000ED0025438406E40FA4002C434506ED0F57
:10BDC0006D002543C0092843BC1BA040521C014301
:10BDD000D2B2042AD8D35E4D2962624E00243019B3
:10BDE0002030007A082C4ED2A107C90EFF228A40CB
:10BDF000D243042C23D26B6A13406B62C207130E2A
:10BE00008207D20F92011A434307DB0F5B011343F2
:10BE10000207D20F12011A43C306DB0FDB001343E4
:10BE20008206D20F92001A434306DB0F5B001343D6
:10BE3000C00918438840696A0843686226E0AB6A13
:10BE40001340AB628307C207DB0F120E9F0117433B
:10BE50004207D20F53010207D20F3B4312011A438C
:10BE6000C306DB0FDB0013438206D20F97004206A6
:10BE7000D20F52001F433A43C00910438840A96AB9
:10BE80000843A86202E03848FFF786F9641C082CD2
:10BE9000A5DB364C207CE860607C696B090A0902EE
:10BEA000696300281CD001281DD0022825D0032852
:10BEB0002BD02F48FFF770F9A07C2E4B2E492F4C2A
:10BEC0002F4A00282AD0012832D0022807D1286121
:10BED0008C622C484B62C8622B484A630863F8BDE9
:10BEE000686B6863E8E7686B012108436863FF20BB
:10BEF000E863FF200830A863DEE7686B022108438F
:10BF000068632248E863224806E0686B032108431F
:10BF100068632048E8630020A863CDE7002028611B
:10BF20008C621D484B62C8621C484A630863F8BDB6
:10BF3000012028618C621A484B62C8621948086364
:10BF400019484863F8BD000000F50140C01F0040DB
:10BF50000015004080E200E004110040EC260020C3
:10BF6000242600209C26002039030900BC2600203E
:10BF7000C203090000500078001700404E00005432
:10BF80003E420F8208800C6088647200FFFF000050
:10BF900021100100FFFFFF0003800C60226472008B
:10BFA00002800C6011646600DEC08F821CB5FFF752
:10BFB0009DFD002000F05CFD642000F035FE0420B3
:10BFC00000F052FE03211C4800F0E8FD012000F0C3
:10BFD0000DFEE120800000F037FE00F0FBFC00F0D9
:10BFE00031F9002801D0FFF751FB002000F04AF999
:10BFF0001249134A03C9019100901F206946088025
:10C000000E48083000F0BCF9002801D0FFF73EFBD5
:10C010000A480121083000F037FA0848083000F0DB
:10C02000A3F9012000E0002040BF20BF20BF401C3A
:10C03000C828F9D3F7E70000E02500209CE10100C3
:10C0400011E00100F8B503041B0E0E460093C3B2C5
:10C05000010E000200160024170C404295B2062B78
:10C060005BD21A007A44127992189744021427423C
:10C070003F3C002900D001210C4629043D46000424
:10C0800005430C43304600F055FE2A4621460098F1
:10C0900000F08EFCF8BD23488068407E002802D165
:10C0A0002148FFF779F8304600F044FE2146280485
:10C0B00001433A46009800F079FCF8BD002900D011
:10C0C00001210C4600040443002907D0002E02D1B0
:10C0D0001648FFF761F8304600F02CFE2146009824
:10C0E00000F0C4FCF8BD00F073FCF8BD00F054FD96
:10C0F000F8BD0F484168491C416001780029F7D01C
:10C100008168002902D0491E8160F8BD00F0EEFE72
:10C110000028E8D100F0B8FDF8BD0648FFF73CF86C
:10C12000F8BD000004260020B5030500C303050088
:10C1300090260020E303050002490F220A70C86020
:10C14000704700000426002009480A4A4168491C3B
:10C15000416012681368994208D300234360016864
:10C16000491C01605268914200D30360704700008F
:10C17000302600202C26002070B5084D064C29687A
:10C1800020684968884202D30548FFF705F8286807
:10C1900021688068405C70BD302600202C2600207D
:10C1A000B2000100014800687047000030260020FE
:10C1B00001484068704700003026002010B5040098
:10C1C00002D10548FEF7E8FF044800210460044856
:10C1D0000160416010BD00002A0001002C260020F3
:10C1E0003026002010B50446054800684068A0428B
:10C1F00002D80448FEF7D0FF0348046010BD0000D9
:10C200002C260020B90001003026002010B504467D
:10C21000054800680068A04202D80448FEF7BCFF49
:10C220000348446010BD00002C260020C50001001A
:10C23000302600200121890740180068002800D01E
:10C240000120704770B50C4C00252078002801D0E3
:10C2500085250FE00021A16061602161E160074850
:10C2600000680126304002D1032100F03DF8044867
:10C2700086612670284670BD7C26002000E100E023
:10C280000005004070B5154C0546A078002808D080
:10C29000002D02D06968012088470020FFF702FACC
:10C2A00015E00020FFF7FEF9002D04D00B482946C9
:10C2B0001030FFF7E7FCE068002808D10849086063
:10C2C00008490220486006490120FC390860E068FE
:10C2D000401CE0600020FFF7E9F970BD7C260020DB
:10C2E00004010040000300408207D30EFF229A4061
:10C2F0008907090E10B59940002808DB8408104B07
:10C30000A400E418236893430B4323600AE0030767
:10C310001B0F083B9C080B4BA400E318DC699443FB
:10C320000C43DC61C206D20E01219140002801DBE2
:10C33000054A1160002801DB0448016010BD0000BF
:10C3400000E400E000ED00E080E200E000E100E059
:10C35000026801215160407942008018014A11545D
:10C3600070470000F4250020016801220A6040792E
:10C37000022142008018014A11547047F425002020
:10C3800070B50D460446002A0DD06079164980002C
:10C390000A506079144E41004018361F305C002866
:10C3A00003D0082070BD072070BD0420A978205656
:10C3B000FFF79AFF052221681202288889188860F1
:10C3C000617928794A008918891948706179E87873
:10C3D0004A00891889198870617901204A008918F2
:10C3E0007054002070BD0000F8250020F7B5044609
:10C3F00082B0FF20413000900125032089002D04E8
:10C40000002700022618019116E0706828420DD01E
:10C4100000982058002809D0B564B5600098002124
:10C420002150184A0199F8B25158884700986D0078
:10C43000001D80B27F1C009004988742E5D3FF2046
:10C4400071680130C907C90F09D02158002906D0E9
:10C45000002121500B490198095804208847FF20EA
:10C460000530726802210A4209D02158002906D0FD
:10C47000002121500349019809580520884705B03B
:10C48000F0BD0000F825002030B5FF240134012262
:10C49000036800251D51032304681B02E41862642D
:10C4A000002902D00068C018426030BD70B51B4C36
:10C4B00005462068062802D31948FEF76DFE21685C
:10C4C0000020184E00290BD98200B258AA4203D18D
:10C4D0001548FEF761FE0EE0401CC0B28842F3D35F
:10C4E0001248002122224A431318AB4206D0491CAD
:10C4F000C9B20629F6D30E48FEF74EFE20680D4954
:10C5000080003058884202D00B48FEF745FE206874
:10C5100081007550401C206070BD0000582600202E
:10C520008500030040290020F60003005829002060
:10C5300086000300ADDEADDE880003000148006820
:10C54000704700005826002010B50446102802D37A
:10C550000348FEF721FE600002492018085C10BD68
:10C56000C80003005028002070B400201F4A014674
:10C570004300C3189C186170A170D154401C10284E
:10C58000F6D300211A4D1B4BDE240A4622204243DB
:10C590008E0050199851AC5444708470C47004716A
:10C5A00044718471C471047244728472C4720473DD
:10C5B00044738473C473047444748474C4740475BD
:10C5C00044758475C475047644768476C47604779D
:10C5D00044778477C47720300470491C447006295E
:10C5E000D3D305490620086070BC7047502800204E
:10C5F00058290020402900205826002070B5002529
:10C600000446102802D30F48FEF7C6FD60000E490D
:10C610002218885C002813D00C2044430B482318B0
:10C6200050188478A4001D598478641C8470847820
:10C63000801C032C01D300230370885C401E8854A7
:10C64000284670BDA6000300502800208028002046
:10C65000F8B50D460446102902D32048FEF79CFD8C
:10C660001F4900200968064600290CD91D4A83008D
:10C67000D358A34203D11C48FEF78EFD0EE0401CA8
:10C68000C0B28842F3D319480022222151430B182B
:10C69000A34206D0521CD2B2062AF6D31448FEF7A3
:10C6A0007BFD6800134A2918505C032814D20C2023
:10C6B000454311482B1888184578AD005C514478E3
:10C6C000641C44704478401C032C00D30670505CFA
:10C6D000401C50540120F8BD0020F8BD8F0003001D
:10C6E0005826002040290020F60003005829002089
:10C6F00090000300502800208028002010B5044638
:10C70000102802D30948FEF747FD600021180848A9
:10C71000425C002A08D00C225443064AA21808188A
:10C7200080788000105810BD002010BDB7000300B5
:10C73000502800208028002070B5164900240A687F
:10C74000002A25D09000144B144DC0188038C46FB7
:10C75000521EC5670A600021002A0BD988001D58A7
:10C76000A54203D10E48FEF717FD0EE0491CC9B2E1
:10C770009142F3D30B48002122224A431318A342CB
:10C7800006D0491CC9B20629F6D30748FEF704FDB6
:10C79000204670BD5826002040290020ADDEADDEC9
:10C7A000F6000300582900207D0003000048704770
:10C7B00048A000400048704740A100400148007870
:10C7C000704700003826002070B5114801254560EB
:10C7D000C560104E0024B4600F4845600F484068A3
:10C7E000002802D00E48FEF7D7FC00200D49C043B8
:10C7F00088600D480460042030610C484460057076
:10C800004470847008150A4908600A49086070BDC0
:10C8100000A0004000A5004040A0004040A500400E
:10C820003500040000A3004040A10040382600204D
:10C8300080E200E000E100E00349012008600349D4
:10C84000002008707047000000A00040382600203B
:10C8500010B4074801214160C16000220548064C20
:10C86000426042708B0223608270017010BC70477E
:10C8700000A000403826002080E200E00148407817
:10C88000704700003826002070B552000A43990016
:10C89000049D0A432902059E0A43310405240A43E4
:10C8A000240780000721001909024018026070BDAA
:10C8B0001CB5002100910B46012201911146FFF7A2
:10C8C000E3FF1CBD1CB50023009301920B46002220
:10C8D0001146FFF7D9FF1CBD012181400148C1600D
:10C8E000704700000005005001218140014881602F
:10C8F0007047000000050050F7B52A4D1646074660
:10C90000082804D304202870002003B0F0BD01984B
:10C91000002806D0202E09D906202870002003B058
:10C92000F0BD03202870002003B0F0BD384600F0B1
:10C9300013FA032804D309202870002003B0F0BDA7
:10C94000384600F005FA032804D30A202870002096
:10C9500003B0F0BD00F0F8F9022804D208202870D6
:10C96000002003B0F0BD00F0F5FA044606704078F0
:10C970000121084360703246A01C0199FEF7D6FBE6
:10C98000F8B2214600F0C6FA002802D0012003B018
:10C99000F0BD0548FEF700FC0F202870002003B012
:10C9A000F0BD000004260020DD00050070470000F7
:10C9B00007B582B0202100916946097B002903D088
:10C9C0006A46024900F016F805B000BD5C2600205A
:10C9D0007047000006488168002903D102210170D8
:10C9E0000020704710B500F065F9012010BD00006F
:10C9F00004260020F8B516460F46044600F0A8F9B4
:10CA0000184D00280CD0002F0ED0204600F09EFAC2
:10CA10000078316881420BD2062028700020F8BDD2
:10CA20000B2028700020F8BD032028700020F8BDDE
:10CA3000204600F065FA04000CD0A01C0AD0227831
:10CA4000A11C38463260FEF771FB204600F072F9F7
:10CA50000120F8BD0448FEF79FFB0F20287000203E
:10CA6000F8BD000004260020050105007047000005
:10CA7000F1B5454D82B000242C704448EC60046050
:10CA800044608460424800F06BF9A86001250028EA
:10CA900074D03D4F407E3F4902267A68012817D066
:10CAA000102A17D8100015D00846FEF73FFB39486A
:10CAB000796800F06FFA01200090029800280DD0EC
:10CAC00001280FD002280FD00520387000200FE079
:10CAD0003E7001E0072038700020EDE7012000F0F3
:10CAE000C3FA04E0022000E0002000F0BDFA0120BB
:10CAF000009908400090042000F036FA22490020F6
:10CB00008968497E002903D01F482746067002E045
:10CB100000F03AFA2F461C49009889680740497E80
:10CB20000020002903D018480670204602E000F0DB
:10CB3000D1FA2846074014488068407E002803D078
:10CB400011480670204603E0012000F03DFA284617
:10CB50000D4907408A680020527E002A01D00E70DD
:10CB600002E000F0C1FA2C463C40012000F0D0F871
:10CB7000002C03D0012003B0F0BDFFE70248057090
:10CB8000002003B0F0BD0000042600209026002005
:10CB900045C00100142600207047000010B5114C5C
:10CBA000A268527E012A11D0102913D8002911D071
:10CBB000002813D00A46616001460B48FEF7B6FA1A
:10CBC0000948616800F0E6F9012010BD02202070DC
:10CBD000002010BD07202070002010BD0320207011
:10CBE000002010BD042600201426002010B50D4999
:10CBF00002468B6802205B7E002B02D0087000206A
:10CC000010BD002A0AD0012A05D0022A05D00E2024
:10CC10000870002010BD002000E0012000F0D4F9D1
:10CC2000012010BD0426002010B506498A68527EF6
:10CC3000002A03D002200870002010BD00F00EFA78
:10CC4000012010BD0426002010B506498A68527ED6
:10CC5000002A03D002200870002010BD00F01CFA4A
:10CC6000012010BD0426002010B506498A68527EB6
:10CC7000002A03D002200870002010BD00F012FA34
:10CC8000012010BD0426002010B5012080F310887B
:10CC90000748417E002906D08178002903D101216F
:10CCA000817001F0C3F9002080F3108810BD0000EE
:10CCB000D026002070B5114C607E00281CD1FEF7F4
:10CCC000EDFF0F4DA868002802D10E48FEF764FA68
:10CCD0006868002802D10C48FEF75EFA01F036F9C8
:10CCE000002802D00948FEF757FA002001F042F967
:10CCF0000120607601F09AF970BD0000D026002076
:10CD0000042700205E0209005F0209006602090094
:10CD100010B5044604484068002802D10348FEF7D5
:10CD20003BFA0348047510BD24260020F6030900D1
:10CD3000EC26002010B5012181F3108800F0CAFF15
:10CD4000002080F3108810BD10B500F0C7FF10BDA3
:10CD500010B500F0D9FF10BD10B500F0E1FF10BD17
:10CD6000F8B50646012080F31088544C0025607009
:10CD700003202070A5706560A560A581E58125610F
:10CD8000656125764E486576056045608560C560BD
:10CD9000056105754B4F1830BD604560FFF714FD08
:10CDA000304600F045FE00F0BFFF002001F0DAF849
:10CDB0003846FFF703FA454A43491068FF26330413
:10CDC0009843106008681A12904308604048016850
:10CDD0004022B14311430160012080F31088217883
:10CDE000012905D06070607E00285ED001F01EF938
:10CDF000002080F310883046364E0422306172776E
:10CE0000354830623548706235480121017202218F
:10CE1000417203238372C272052202730622427397
:10CE2000072282730822C27305744174012282743E
:10CE30001E2070614B20C000F16070602278022AD1
:10CE400002D06068002833D039600F20B060022A19
:10CE500002D06268002A2ED0396000207083012041
:10CE6000307670760020307700F0DAFF692030608D
:10CE70006078012802D01B48FEF78EF9012020704F
:10CE8000A5706560A560A581E58125616561257650
:10CE90006576FEF703FF01211348890201608902CC
:10CEA000016085F310880548F8BD01F0F1F89FE7AF
:10CEB000B0683860C9E73860CFE70000D0260020AE
:10CEC000EC2600200427002000E400E008E400E055
:10CED00014E400E09C26002004070A0D05080B0E50
:10CEE000BC2600203C02090080E200E00348407EAE
:10CEF000002801D00020704701207047D026002074
:10CF000010B5012181F3108800F044FF002181F366
:10CF1000108810BD10B5012282F3108800F03FFF89
:10CF200000280DD008488178002904D1407E0028CF
:10CF300001D001F07BF8002080F31088012010BDA3
:10CF4000002080F3108810BDD026002010B500F01E
:10CF500039FF10BD10B5012080F3108800F037FFB5
:10CF6000002181F3108810BD0549487705498A6979
:10CF700007231B049A43000402438A6170470000A0
:10CF80009C260020001500400149087670470000EB
:10CF90009C26002070B50C00054602D10748FEF71C
:10CFA000FBF8002D02D10648FEF7F6F8054885602B
:10CFB00044600020FFF716F970BD00004803090027
:10CFC000490309000427002030B41749174C88741E
:10CFD000174B1849184A194D00280DD0012816D0B2
:10CFE000022807D120614B6215488A62C862154841
:10CFF0004D63086330BC7047002020614B621248CB
:10D000008A62C86211484D63086330BC70470120D2
:10D0100020614B620E488A62C8620E4808630E485F
:10D02000486330BC70470000BC260020001500405B
:10D0300000500078001700404E0000543E420F821E
:10D0400008800C608864720003800C6022647200A7
:10D0500002800C6011646600DEC08F820149488343
:10D06000704700009C26002010B5012181F3108834
:10D0700008490A78824205D04870487E002805D0C9
:10D0800000F0D4FF002080F3108810BD01F000F8FC
:10D09000F8E70000D02600200149486070470000F2
:10D0A0009C26002010B40849084AC8601478084B30
:10D0B000022C02D05268002A02D0186010BC7047BF
:10D0C0008868186010BC70479C260020D02600207D
:10D0D00004270020024908740249C8607047000014
:10D0E000BC26002000150040014908777047000069
:10D0F0009C26002070B51248124C4068407D0028E4
:10D1000005D0012000F0FEFBA089401CA081002674
:10D110000D4930464E610D494A680968551A00F0BC
:10D1200029FF6069A84202D30948FEF735F8606913
:10D130000122291A0748FEF733F8666170BD000026
:10D1400024260020D026002000F501409C26002047
:10D150004D06090031DF0100F0B5FA48FA4C40698C
:10D16000FA4EFB4F87B0002803D1FFF787FB00285A
:10D1700016D0F44D6868002801D0401E68602878F9
:10D18000022802D06968002979D0F1682160A97865
:10D19000002975D0FEF7D8FFFEF756FC07B0F0BDAA
:10D1A000E84800250078012802D0022805D009E0CF
:10D1B00000F0A0FB002805D0B9E1387804287DD024
:10D1C00003287BD0FEF7C0FFDE484168002901D06C
:10D1D000491E41600178022902D04168002919D016
:10D1E000F168216004468078002815D0FEF72CFCF9
:10D1F00000F016FC022870D303266846002406704F
:10D2000001940481448144708570C57000F0CCFBAA
:10D2100007B0F0BDB168E4E700F03AFF002811D094
:10D220000020766800F0A6FE6069B04202D3C948CB
:10D23000FDF7B2FF60690122311AC748FDF7B0FF60
:10D240006561D5E7207800287ED0012819D0022812
:10D250007BD0C248FDF7A0FF707E0128C8D120789E
:10D260000228C5D061680029C2D10127BF07002864
:10D270006CD001286BD0BA48FDF78EFFB8E77FE18C
:10D2800080E100F0C9F900F045FD002826D0708B40
:10D2900000287CD0A189814279D30121002000F0AF
:10D2A000ABFC012700F024FD0590A2890492E289DD
:10D2B000039200F023FD69460F7000E037E1059905
:10D2C00001916946049A0A81039A4A8148708D70D7
:10D2D000CD70684600F068FBA7E023E100F0A0FBFA
:10D2E00002287DD32078022802D06068002804D06C
:10D2F000FEF75EFF002832D097E02069FEF772FF4C
:10D300000020FEF783FF00F0B5FD002868D0A5815E
:10D31000E58100F0F3FC9349C86200F0EFFC0121C5
:10D3200081409048016300F0E3FC8F49086000F001
:10D33000D9FC8D4948608D48C860FEF71DFF8949BA
:10D34000886000F0E7FC03E0BEE09FE0DCE0C6E0C0
:10D35000012872D000F0DEFC02285CD058E0307E5C
:10D36000002828D000F086FD00285ED0A581E58148
:10D3700000F0C4FC7B49C86200F0C0FC0121814080
:10D380007848016300F0B4FC7749086000E055E09C
:10D3900000F0A8FC744948607448C860FEF7ECFED1
:10D3A0007049886000F0B6FC012865D000F0B2FC3E
:10D3B00002285FD02CE0FEF7F5FE2169884234D1C7
:10D3C00000F058FD002830D0A581E58100F096FCE2
:10D3D0006449C86200F092FC01218140614800E08C
:10D3E00023E0016300F084FC5F49086000F07AFCF0
:10D3F0005D4948605D48C860FEF7BEFE59498860D7
:10D4000000F088FC012837D000F084FC022831D0DD
:10D410005748FDF7C1FE2DE000F0FAF9FFF7CAF911
:10D42000544908617868406848610120376800F015
:10D43000A1FD6069B84221D34DE01DE0FFF71EFA5F
:10D44000002802D04C48FDF7A7FEFEF795FE45499F
:10D450008968884202D0E089401CE081FEF78CFE9A
:10D460004049886000F056FC012805D000F052FCCD
:10D470000228CDD10020CFE70120CDE7606901224D
:10D48000391A3548FDF78CFE6561E5E6002000900D
:10D49000FEF772FE33498968884201D1009805E0A1
:10D4A000FEF76AFE2F498860012000903978401EFF
:10D4B000084201D1FEF7BCF90020776800F05AFD60
:10D4C0006069B842DAD306E00020776800F052FDC8
:10D4D0006069B842D2D31F48FDF75EFECEE700F088
:10D4E00019FC002800D083E600F01CFD0028FAD1CA
:10D4F000FFF764F90128F6D0FFF7AAF9307F00287A
:10D500000BD10120786008E0FFF758F90128EAD034
:10D51000FFF79EF9307F0028F3D0002000F02AFDAD
:10D52000656065E61548FDF737FE07B0F0BD706829
:10D5300001224108034841610748FDF731FE07B069
:10D54000F0BD0000D0260020042700209C260020EB
:10D55000242600204D06090031DF0100580409008F
:10D560007204090000150040EC26002009B90100F2
:10D570001E06090000F501400A0509008C04090097
:10D58000B16803E6022809D0FEF7DEFD00207468CA
:10D5900000F0F0FC6869A04223D31FE0387804282B
:10D5A00029D0032827D0FEF7CFFD0024FEF7E4FDA5
:10D5B000154FB968884203D0FEF7DEFDB86001243C
:10D5C0001248641E0078044201D1FEF731F90020B0
:10D5D000746800F0CFFC6869A04202D30C48FDF7E4
:10D5E000DBFD68690122211A0A48FDF7D9FD0020F8
:10D5F000686107B0F0BD70680122410805486961A3
:10D60000FDF7CEFD07B0F0BD001500402426002038
:10D610004D06090031DF0100F8B51C4802270760FC
:10D620001B49401788601B4807601B4800240460A2
:10D630001A4E34611A49012008618861194D287811
:10D6400001281CD002281ED003281CD00120FDF781
:10D6500041FD346110482C70046000200C49C04327
:10D6600088600C480760F46003206870346034619F
:10D6700074606C602C750C486C750760F8BD0620F2
:10D68000FDF728FDE5E70220E1E7000080E100E08A
:10D690000013004080E200E0001200400011004052
:10D6A000001000401027002000E100E0F8B53348EA
:10D6B000354A06690327324B0025324C1168012E8A
:10D6C00005D0022E48D03148FDF766FDF8BD04268E
:10D6D00006708669761C86611F602D4E02233360BA
:10D6E000E5602560256165602A4B08265E60097D3E
:10D6F000002910D0284EB168284F8175386840073E
:10D7000002D42748FDF748FDE561264901208861DC
:10D710000420B860B5602068002802D02248FDF7D8
:10D720003BFDE068002802D02048FDF735FD204889
:10D730000068800702D51F48FDF72EFD124C2068B7
:10D74000C068002800D080472068417D0029BDD0F6
:10D75000194900684860F8BDE5602561256065608D
:10D760001D6000230B4A0570DB43936047704560E2
:10D77000057508690028EED08047F8BD1027002005
:10D78000001200400011004040260020E7020A007D
:10D7900080E200E0001300404015004000F5014029
:10D7A000AD020A0000100040B6020A00B7020A00EB
:10D7B00000E200E0B8020A000015004010B50D4973
:10D7C000022408600C4804600D480C4941620D4970
:10D7D0000162FFF721FF00210B4803220170427014
:10D7E0004160016101754175817508480460064812
:10D7F00010BD00004026002080E100E01410004031
:10D8000000F50140041100401027002000E100E075
:10D81000F8B505462A4900012A4C4718207D002802
:10D8200002D02948FDF7B8FC0026002D2AD0012D92
:10D8300028D0022D26D02548FDF7AEFC2448FDF760
:10D84000ABFC002123486675C94381602249022050
:10D850000860224865700068032D0168A160406877
:10D860002661A661E0603A6862601BD21C4B3A7A7E
:10D870001A60FB7A1B4A002B08D0506050680028C1
:10D880000DD109E020780028DBD0D7E7516050683F
:10D89000002804D1144800E01448FDF77DFC0D4831
:10D8A000797A41600D480068007D002805D0022D7E
:10D8B00003D10F49A6750420486001206075F8BDAA
:10D8C000C8E1010010270020DB000A00F9020A006D
:10D8D000DD000A000013004080E200E04026002046
:10D8E000001200400015004000010A0005010A0076
:10D8F00000F5014002484068012800D00020704730
:10D9000000110040F8B51E4C074665781D492801F6
:10D910004618607D012802D01B48FDF73DFC207DA4
:10D92000002802D01948FDF737FC0120002120759E
:10D930006175032D0AD2002F01D131680860022DD4
:10D9400001D0012D05D1B07A207002E01048FDF71A
:10D9500023FC10480068007D00280FD0022D0DD157
:10D960000D484068400702D40C48FDF715FC0C48F0
:10D970004068002802D10B48FDF70EFCF8BD0000FE
:10D9800010270020C8E1010021010A0022010A003D
:10D990003A010A004026002000F5014040010A003B
:10D9A0000015004041010A0070B5184D0446286872
:10D9B000002802D11648FDF7EFFB164E70680A28C2
:10D9C00002D31548FDF7E8FBE86F0C2148434119E5
:10D9D0002078087160784871A0788871E078C87103
:10D9E00060688860208988816089C8817068401C6F
:10D9F0007060E86F401CE867E86F0A2801D30020D8
:10DA0000E867012005490005086070BD3427002043
:10DA100034000B00B427002035000B0000E200E0CA
:10DA2000024840680A21081AC0B27047B427002093
:10DA300010B5040002D10748FDF7AEFB06490C60A3
:10DA40000020C867054908604860012004490005B6
:10DA5000086010BD29000B0034270020B4270020E7
:10DA600000E100E0FFB55A4885B0C06F03250027EC
:10DA70000F9E0C46002802D15648FDF78DFB5448F6
:10DA80000078032802D05448FDF786FB5048C06F49
:10DA900041785248CA070190002A1ED1807C002894
:10DAA0001BD000200090059800286ED007984907E9
:10DAB0000002890F000A464B09060843A200D1184C
:10DAC000896B00220E9B88421A60326003905ED000
:10DAD0003F4FF86F002805D101E00120E2E7404800
:10DAE000FDF75AFB3A482146C06F08310291FEF714
:10DAF000AFFD002804D0002035490127C86700E0A9
:10DB00000027009838400090002F40D002988100F4
:10DB10002F4809180398886108990F4236D0314878
:10DB2000005D002832D02046FEF70EFD002802D10D
:10DB30002D48FDF731FB2046FEF760FD02900028DE
:10DB400011D001982546007C002805D020480069A6
:10DB5000A84201D100F040F91D4900204919803147
:10DB60000870204948550E99029808600E990029BE
:10DB700009D0002802D11D48FDF70EFB00211948ED
:10DB80000225015503E01A48F6E712E00125009846
:10DB900000280AD02046FEF7B1FD3060002803D0EF
:10DBA00010480121015501E012483060002F01D0DA
:10DBB00006E00425064CE06FFEF778FC0020E067E5
:10DBC00003490020087000F007F9284609B0F0BDAD
:10DBD000BC2700205B010C005C010C003C280020ED
:10DBE0006F020C004426002091010C0096010C00ED
:10DBF0009A010C0014280020F8B52D4C0646207818
:10DC00000D46012804D0022802D02A48FDF7C4FAA4
:10DC1000002E28D02078012802D02748FDF7BCFA32
:10DC2000E068002802D12548FDF7B6FAE0680078E0
:10DC3000002804D0E06F6668002805D101E00027C5
:10DC400012E01F48FDF7A8FA31460831E06FFEF7F1
:10DC5000FFFC002802D00020E06702E01948FDF731
:10DC60009BFA022700E00427002D1AD06568284699
:10DC7000FEF7C4FC06000ED01348007C002804D038
:10DC80002069A84201D100F0A7F800206119803175
:10DC900008700E494855A068B04202D00C48FDF704
:10DCA0007BFA0020207000F097F83846F8BD00009D
:10DCB000BC270020FC000C0002010C0003010C003A
:10DCC0006F020C000E010C003C28002044260020AE
:10DCD0001E010C0010B5FEF7E9FB10BD10B5FEF7F4
:10DCE0002DFC10BD0148C06870470000BC27002013
:10DCF0000148806870470000BC2700200148406848
:10DD000070470000BC27002010B50830FEF71CFC4F
:10DD100010BD00000148007870470000BC270020BB
:10DD200010B5FEF711FC10BD70B5FEF71DFC00220A
:10DD3000144C154E10460106930001431B199961BE
:10DD4000134605060146083329439D002D19A96194
:10DD5000A11880310870E11880310870B054521C4D
:10DD6000082AE8D320706060A060E0602061074965
:10DD700060610874064A48741076E0670120887470
:10DD800070BD0000BC270020442600203C28002055
:10DD9000FC27002010B50830FEF730FC10BD70B530
:10DDA0000E4604460025FEF7C9FB002808D0214690
:10DDB0003046FEF74DFC002802D000F00DF801259A
:10DDC000284670BD10B50830FEF798FC10BD10B5A0
:10DDD000FEF7B2FC10BD0000F8B50F4C207800280B
:10DDE00019D10E4E307C002815D108250127606915
:10DDF000FEF7AAFB002802D03774606920616069D1
:10DE0000401C6061082801D100206061307C00283E
:10DE100001D16D1EEBD1F8BDBC2700203C280020AD
:10DE200001498874704700003C28002070B50F4DF0
:10DE30002878002802D00E48FDF7AEF9E86F0028D8
:10DE400002D1FEF779FCE86704000CD0FF202070B7
:10DE50006078062108436070FF222021A01CFDF796
:10DE600077F903202870204670BD0000BC270020F1
:10DE70003B010C0070B5264C2078002802D02548C4
:10DE8000FDF78AF9244D0026287C002825D020693A
:10DE90006060FEF733FCA060002802D11F48FDF748
:10DEA0007BF9A0684078C00705D1A87C002802D083
:10DEB0000220E6600FE060680830FEF745FB0328AB
:10DEC0000BD2E06F002802D1FEF736FCE067E0607D
:10DED000002802D00120207002E02078002816D00F
:10DEE000A068002802D10E48FDF756F9206960604D
:10DEF00080000119C87EF923401CC876A2688007FB
:10DF00005178400F1940014351702E74012070BDAB
:10DF1000BC270020C3000C003C280020C9000C00D6
:10DF2000E7000C000148007C704700003C280020FE
:10DF300004480178817041780170880002490858CE
:10DF4000004700004C2600205026002001480078A1
:10DF5000704700004C2600200148407870470000C0
:10DF60004C260020024988704870087070470000F5
:10DF70004C26002010B50446022802D30248FDF7C3
:10DF80000BF90248447010BD2A000D004C260020F9
:10DF9000F8B51D4E04460025AF00F059FEF7A4FC6D
:10DFA00000BF1A48016900BF016900BF00692178FC
:10DFB00002034900D20F11432170617842034900E6
:10DFC000D20F11436170A17882034900D20F11432F
:10DFD000A170E17842044900D20F1143E170217928
:10DFE00082044900D20F114321716179C0044900B4
:10DFF000C00F01436171F059FEF76EFC6D1CADB2AC
:10E00000072DC9D3F8BD0000ACE1010000050050A8
:10E010001CB50020009001906846FFF7B9FF6846E4
:10E02000FDF7AEFD6846FDF7E3FD1CBD10B5FEF73C
:10E03000C5FB012820D1FFF78FFF002802D00F4831
:10E04000FDF7AAF800221E210D48FDF7A9F80D489A
:10E05000007F00280ED10C48012141610B480022AD
:10E0600002608205116000BF00BF00BF00BF0168F1
:10E070000029FCD0FEF7E0FB10BD00002C060900D3
:10E0800031DF01009C260020000500400001004017
:10E09000F0B53B4E83B03078717888426DD000285F
:10E0A00001D1FDF7FBFD7078364D002400281CD10E
:10E0B0000320A860FFF72EFE012804D0022802D01A
:10E0C000032812D104E000210846FFF795FD07E080
:10E0D000002300941A46194618460194FFF7C2FC23
:10E0E000042802D02848FDF757F86C61FFF794FA2E
:10E0F000264D274F2C606C602C61AC60EC60307852
:10E10000012802D0022809D01CE0FFF703FE0028F6
:10E1100015D000210846FFF76FFD10E0FFF77CFAED
:10E120001C482C610470FFF7F5FD032807D100237C
:10E1300000941A46194618460194FFF793FC30786C
:10E14000022802D07068002813D01348F9680160D3
:10E1500070783070042568460023057001930381B0
:10E16000438143708470C470FFF71EFC012003B02C
:10E17000F0BD0948B9680160EAE7002003B0F0BDCE
:10E18000D026002000F50140E8010900EC2600201F
:10E190009C260020242600200427002000000341A4
:10E1A0000000000000B000400B000300030000006E
:10E1B0000400000005000000060000000700000049
:10E1C0000A0000000900000000100040101100408B
:10E1D00003100000010000000010004000000000DB
:10E1E0000B020400000000000410004000000000CA
:10E1F000070803010000000018E20100E0250020EC
:10E200007C00000050B6010094E201005C26002072
:10E21000CC0B000060B60100042A4D000000000095
:10E2200000000000000000000000000000000000EE
:10E2300000000000000000000024F40000000000C6
:10E2400005000000000000000000000004192A3F43
:10E250004D00000000000000000000000000000071
:10E2600000000000000000000000000000000000AE
:10E27000000000000000000000000000000000009E
:10E28000000000000000000059D10100F5D001009D
:04E29000000000008A
:040000050001B0C185
:00000001FF
