:020000040001F9
:10B0000040360020F5B001000FB1010011B1010080
:10B010000000000000000000000000000000000030
:10B0200000000000000000000000000013B101005B
:10B03000000000000000000015B1010017B1010080
:10B0400095B20100E9B2010065B6010019B1010035
:10B0500019B101000000000019B1010019B101008F
:10B0600019B1010019B10100F9B5010019B10100D0
:10B0700019B1010019B1010019B1010019B10100A4
:10B0800019B10100A9B4010019B1010019B1010001
:10B09000C9B4010051B5010019B1010019B1010095
:10B0A00019B1010019B1010000000000000000000A
:10B0B0000000000000000000000000000000000090
:10B0C0000348854600F056F800480047F1C10100EA
:10B0D00040360020401E00BF00BF00BF00BF00BFC1
:10B0E00000BF00BF00BF00BF00BF00BF00BFF1D165
:10B0F000704700000321094802680A4302600848BB
:10B1000002680A4302600748804707480047FEE795
:10B11000FEE7FEE7FEE7FEE7FEE70000240500404D
:10B120005405004059B50100C1B0010003460B436E
:10B130009B0703D009E008C9121F08C0042AFAD2ED
:10B1400003E00B780370401C491C521EF9D2704773
:10B15000D2B201E00270401C491EFBD270470022AF
:10B16000F6E710B513460A4604461946FFF7F0FF06
:10B17000204610BD064C0125064E05E0E36807CCCD
:10B180002B430C3C98471034B442F7D3FFF79CFF95
:10B19000ACE60100CCE6010010B501F029F910BDC4
:10B1A000F7B50746002401202E49000415468860A3
:10B1B0002D4EB078002802D02C48FFF7EDFF002F6D
:10B1C00002D12B48FFF7E8FF7068002802D0294819
:10B1D000FFF7E2FF284677600127274D002820D09F
:10B1E000012828D0022824D02448FFF7D5FF24487E
:10B1F000B770002101600199611889B229602E6839
:10B2000020494F606D680068002802D01E48FFF793
:10B21000C3FFA64211D3A54201D3B5421CD31B489C
:10B2200018E0184847606C680760154900200860FE
:10B23000DDE7AC68DBE72C68D9E7B54201D2012035
:10B2400000E00020AC4201D8012100E0002188424A
:10B2500002D10F48FFF7A0FF012002490004486017
:10B2600003B0F0BD00A30040582600207300040086
:10B27000750004007600040040A500408900040029
:10B2800040A1004040A000409B000400B00004002A
:10B29000C9000400F8B5FF20013001F027F90024AF
:10B2A00001250E4E0E4F002807D00E4804600120E5
:10B2B000B0607D70002000F0C7FBFF20053001F07A
:10B2C00015F9002808D00748001D04600220B0606E
:10B2D000BD70012000F0B8FBF8BD00000003004085
:10B2E0007C2A002000010040F8B55F4C2069677897
:10B2F000401C2061607D002802D05C48FFF74CFFB5
:10B30000204622785A4D00245A495B4E032A3FD1E9
:10B31000CA68002A3CD0012F03D0022F2FD05748F3
:10B320009EE007460069032802D05548FFF734FF26
:10B3300002203870B969491CB96152490C60C11EBC
:10B34000A960514908604B48C460046004614460CE
:10B35000032179707C603C753268117D00290AD028
:10B360004A498B68BB75C461494B01209861494BC0
:10B37000042098608C60D06800283AD1F8BD00693C
:10B38000012802D04448FFF707FF02F067FAF8BD32
:10B39000032F64D0012F2ED0022FF6D042783F4BDE
:10B3A0001201D218137B0027002B03D0CB68002B8F
:10B3B00000D00127927A334B02701C60032A48D0D8
:10B3C0000022D243AA60304B02221A60CC600322D2
:10B3D00042700C600C614C60446004753068006918
:10B3E000002800D08047002FD1D030688068002826
:10B3F000CDD08047F8BD0269012A18D0022AF9D1C0
:10B40000CC600C610C601F490C60111FA960082101
:10B410006960032101704460047530680069002888
:10B4200000D08047306880680028E2D1F8BD0C6009
:10B430004C600021C943A960012169603168097D20
:10B44000002902D0134A042151601549C0684860A0
:10B45000F8BD0822D243AA6008226A60B9E7114801
:10B46000FFF79AFEF8BD00002C2B002090010A0087
:10B47000001300400011004060260020A9010A00CE
:10B480009F010A000012004080E200E040150040E9
:10B490000010004000F50140A4010A007CE6010014
:10B4A00000150040D6010A0010B5064900200860CA
:10B4B00048608860C860034940390860486002F00D
:10B4C00011FF10BD40110140F8B5204D2C468034CD
:10B4D000012080F310886068002832D020680C2199
:10B4E000484340190279310A090211434279FF2386
:10B4F0001B02120299431A40114382791B02120463
:10B5000099431A401143C2790E02360A11060E43BE
:10B5100081688289C08997B2000407436068401E31
:10B5200060602068401C206020680A2801D3002049
:10B530002060002080F310882B683A4630469847F8
:10B54000C6E7002080F31088F8BD0000502B0020D3
:10B5500010B502F065FE10BD10B500F0E9FB002843
:10B5600005D01F491D484860C8131E4988611E4800
:10B57000018CC9B201290BD1828C120708D1028D2E
:10B580001206120F042A03D1828D1206120F0AD05E
:10B59000012921D1818C09071ED1018D0906090FCE
:10B5A0000A2904D007E0114A01219160F5E7828D54
:10B5B0001206120F05D00D290ED1808D0006000F46
:10B5C0000AD10B480168012904D00A4901600168C9
:10B5D0000129FCD1C021416110BD0000DFFF07C07F
:10B5E00000050040006C0040C00F00F00006004065
:10B5F00000EC06407593000070B50120134900046B
:10B600008860134800250560124C6068002802D14C
:10B610001148FFF7C1FDA5706368104801226560FD
:10B6200042600F484168006895031430A94205D272
:10B630000325AD03A84201D9627005E0814201D320
:10B64000012000E000206070984770BD00A300401A
:10B6500040A1004058260020EC00040040A000401B
:10B6600040A5004010B50249024802F0D1FE10BDCD
:10B67000902A002000200040002805DBC106C90EEA
:10B6800001208840014908607047000080E200E026
:10B69000002805DBC106C90E012088400149086069
:10B6A0007047000000E100E0002805DBC106C90E7C
:10B6B00001208840014908607047000000E200E076
:10B6C00002E008C8121F08C1002AFAD1704770476B
:10B6D000002001E001C1121F002AFBD170470000C9
:10B6E000BFF34F8F04490348C860BFF34F8F00BFBB
:10B6F000FDE700000400FA0500ED00E00EB50021B2
:10B70000029000916A4601910148FFF7E9FF0EBDE2
:10B7100001400000064A014693780020002B05D026
:10B72000531C1B780B7000219170704705207047E7
:10B730001026002070B588B0154604461E4620220B
:10B740001B496846FFF7F2FC60690690207C0028E0
:10B7500001D0012100E00021684601750677607C78
:10B76000002800D00E2069464875E0680290A06865
:10B77000039020680190606800900E4800214560A9
:10B7800081700D4A6946083000F004FF00280CD192
:10B790002068401C09D00748083000F069FF0549BF
:10B7A0000122491CC81D00F035FF08B070BD000023
:10B7B0005CE6010010260020B5E30100F8B507465D
:10B7C00008680C460526411C01253602002906D0D2
:10B7D0002946814019488160206801F024FA606898
:10B7E000411C02D0002101F015FA3968A0698919BD
:10B7F0004862607D217D3A6808439119C8663868BF
:10B8000006CC80194261C160207B083C012814D11C
:10B81000A068411C02D0002101F0FCF9E068411C45
:10B8200005D0854005488560E06801F0FCF93A687C
:10B83000E1689219A06891601061F8BD00050050A0
:10B84000F0B549488BB003684849494A012B02D0FA
:10B850004B6B002B05D153681B78202B01D801239B
:10B8600000E00023434D03242C700024404A002BA9
:10B87000146057D084688268CA623D4A03A9019265
:10B880000091C26801232146184602F0C3F900283E
:10B8900024D0012805D0022824D003284FD03648D0
:10B8A0004BE00398002802D03448FFF775FC20468F
:10B8B00002F0FEFA002802D13148FFF76DFC6868FB
:10B8C0000222817D6846002602700196068146812B
:10B8D00044708170C67002F03FF930E02948FFF7EC
:10B8E0005BFC2CE00398002802D12748FFF754FCAA
:10B8F000204602F0DDFA002802D12448FFF74CFC74
:10B9000068680222817D039E6846027000236A46B1
:10B91000019613815381447001278170C77002F032
:10B920001BF90CE0002000900346024601460190FE
:10B9300002F070F9042802D01548FFF72DFC0C4CDA
:10B940002068002807D0012060751248206104207B
:10B9500028700BB0F0BD01F037FF0020607520614A
:10B9600000F01AF80BB0F0BD0014004000150040C4
:10B97000082B002044260020C8050900B80509004E
:10B98000B9050900BD050900C0050900C105090088
:10B99000CF05090035BA010070B501F015FF1C4C48
:10B9A00000251C4E0120256130701B481B49006991
:10B9B000086302F083FA00281FD002F07FFA032800
:10B9C00002D01748FFF7E8FB022001F0F9FF002042
:10B9D00002F070F802F072FA032802D01148FFF763
:10B9E000DBFB3078012802D00F48FFF7D5FB02209F
:10B9F00030700E482561E06070BD02F0E9F8022861
:10BA0000E2D302F0CBFA60600028DDD10848D9E724
:10BA1000082B002044260020B82A002000150040F2
:10BA200080050900880509009205090041B8010058
:10BA30007B05090010B5034905200870FFF7ACFF2E
:10BA400010BD00004426002070B5084C050009D048
:10BA500010342168002907D008682060496828460A
:10BA60008847F6E70834F4E770BD00007C2A002020
:10BA7000F8B52248416800293DD00E6820494C683D
:10BA800087688078E11B0D022D0AED1C002815D176
:10BA900001201C49000448601A49403948601120BF
:10BAA000FFF7EAFD1120FFF7F3FD174901200860B9
:10BAB0002F2000F023FD114901208870B54200D2EB
:10BAC0003546E81900020E4B000A403318600C4A54
:10BAD0005168001B091B0902090A0002000AC91C5F
:10BAE000814207D9506818602F2000F007FD11200F
:10BAF000FFF7DAFDF8BD02F011FBF8BDF0250020DC
:10BB0000001501404013014000100140F0B54548C8
:10BB100085B00068012803D04348406B002806D157
:10BB2000424840680078202801D8012500E000251F
:10BB30003F4C01266069002804D101F051F800282B
:10BB400000D1666102F0BAF9012802D03948FFF746
:10BB500023FB39484068007D002802D03748FFF7B2
:10BB60001BFB01F031FE002D57D00121084602F0E9
:10BB70001BF9052840D201007944097949188F44FE
:10BB800002381D383800002702F086F90390A68994
:10BB9000E58902F087F90246274869464068837DB7
:10BBA0000F700399019169460E814D814A70002002
:10BBB0008B70C870684601F0CFFF1DE0002702F0CF
:10BBC0006BF90390A689E58902F06CF902461A48E0
:10BBD00069464068837D0F700399019169460E8123
:10BBE0004D814A7001208B70C870684601F0B4FF27
:10BBF00002E01348FFF7D0FA00F030FC2061114852
:10BC00001149426962602378022B01D0002A06D0D4
:10BC1000C0680860002000F055FC05B0F0BD8068E9
:10BC2000F7E700000014004000150040082B00203A
:10BC3000EC2A0020A806090044260020A9060900D5
:10BC4000C8060900B82A0020202B002010B50E4994
:10BC500000230A784C78A24212D0521CD2B20A7049
:10BC6000022A00D10B700A78074B920018339A58B9
:10BC70000260886810180002000A8860012010BD68
:10BC80000360002010BD0000F025002030B5234DDA
:10BC900083B0687E00283AD000F042FF00240128DB
:10BCA0000CD000F087FF1E48007F002802D1012041
:10BCB00081074860002002F015FA6C6001F084FDF5
:10BCC000AC706C7605216846017001940481448152
:10BCD00044708470C47001F03FFF12481249047030
:10BCE0000320886002F0EAF8012812D0022810D060
:10BCF00003280CD1002300941A46194618460194D3
:10BD000001F088FF042802D00848FFF745FA03B085
:10BD100030BD0021084602F047F8F3E7EC2A002086
:10BD2000B82A00204426002000F50140E80109005F
:10BD30001048018CC9B2012917D1818C090714D18F
:10BD4000018D09060A0F03D1828D1206120F0ED043
:10BD5000090F012903D1828D1206120F07D0032982
:10BD600003D1808D0006000F01D000207047012014
:10BD700070470000C00F00F0F0B5284C2146103984
:10BD800048688B68227886469C46CF78667836E08D
:10BD9000182353436168521CC918A378D2B2934246
:10BDA00000D100220B78022B02D0032B27D123E0F5
:10BDB00003464D68194603E0A94204D00B46C96901
:10BDC00000291CD0F8E7002919D08B4208D1C0699E
:10BDD000002805D1124F0125BD600025AC46012782
:10BDE0000D68C969D961002909D00B685B190B601E
:10BDF00005E00174C06900E000210028F9D19642F5
:10BE0000C6D10649624610398A604860CF707045D5
:10BE100001D00120F0BD0020F0BD00000026002070
:10BE200000100140F8B52C4E0446706800250090C3
:10BE300041E0002C02D02046E46920E02648182387
:10BE40001030017842684B43491CC9B2D2180170C6
:10BE50008378994200D105701178506801292CD15E
:10BE6000017C002929D191684160D1688160116904
:10BE7000C16051698161F178002900D04560436853
:10BE8000B268164F991A0902090AB94202D28268A9
:10BE9000891806E0D11A09028268090A8A4202D981
:10BEA000511A016000E00560456001218560017460
:10BEB000C56102F0F7F9002CBBD1074810300178BA
:10BEC00040788142BAD171680098814201D0012046
:10BED000F8BD0020F8BD0000F0250020FFFF7F0026
:10BEE000F8B5AA4D002068610326AE60A849C86372
:10BEF0000120C863A74C6069891588436061606947
:10BF000000090001801D606160690F2109048843F8
:10BF1000310440186061A069012149068843A0618D
:10BF2000A06949100843A061A069000A00022030FE
:10BF3000A061A069FF2109028843A06196490220FF
:10BF4000086000F0E5FDE8619448A8616E609448DF
:10BF500001F00CFD934948609348A269417F072393
:10BF60001B049A4309040A43A2610021036A0A469A
:10BF70001827D6001846F040C0B28507C407ED0F59
:10BF8000240EAD0125434407E40F64012C4305074B
:10BF9000ED0F2D012543C406E40FE4002C43850674
:10BFA000ED0FAD0025434406E40F64002C43C009A7
:10BFB0002043BC1BA040521C0143D2B2042AD8D358
:10BFC0007448C16178480021436A0A46D600184681
:10BFD000F040C0B2C407250E8407E40FA4012C432F
:10BFE0004507ED0F6D0125430407E40F24012C43A1
:10BFF000C506ED0FED0025438406E40FA4002C4395
:10C000004506ED0F6D002543C0092843BC1BA04029
:10C01000521C0143D2B2042AD8D35E4D2962624E2B
:10C02000002430192030007A082C4ED2A107C90E06
:10C03000FF228A40D243042C23D26B6A13406B62E6
:10C04000C207130E8207D20F92011A434307DB0F78
:10C050005B0113430207D20F12011A43C306DB0F21
:10C06000DB0013438206D20F92001A434306DB0F14
:10C070005B001343C00918438840696A084368623B
:10C0800026E0AB6A1340AB628307C207DB0F120ED8
:10C090009F0117434207D20F53010207D20F3B43C0
:10C0A00012011A43C306DB0FDB0013438206D20FD3
:10C0B00097004206D20F52001F433A43C009104373
:10C0C0008840A96A0843A86202E03848FFF764F88C
:10C0D000641C082CA5DB364C207CE860607C696B16
:10C0E000090A0902696300281CD001281DD0022812
:10C0F00025D003282BD02F48FFF74EF8A07C2E4BDD
:10C100002E492F4C2F4A00282AD0012832D002284D
:10C1100007D128618C622C484B62C8622B484A6365
:10C120000863F8BD686B6863E8E7686B0121084342
:10C130006863FF20E863FF200830A863DEE7686BD0
:10C140000221084368632248E863224806E0686BDE
:10C150000321084368632048E8630020A863CDE713
:10C16000002028618C621D484B62C8621C484A63EB
:10C170000863F8BD012028618C621A484B62C862CE
:10C180001948086319484863F8BD000000F50140EC
:10C19000C01F00400015004080E200E00411004094
:10C1A000082B002044260020B82A0020390309006B
:10C1B000D82A0020C2030900005000780017004070
:10C1C0004E0000543E420F8208800C60886472006A
:10C1D000FFFF000021100100FFFFFF0003800C6043
:10C1E0002264720002800C6011646600DEC08F82DF
:10C1F0008EB0002501240095019502952407182290
:10C20000364904A80395FEF791FF35480A90E014DB
:10C2100034490B900C910D9009940323324A0AA9DA
:10C2200004A8FFF787FA002801D0FFF767FA01207A
:10C2300000F062FD06212D4800F0F4FD012000F021
:10C2400019FEE120800000F033FE00F0F9FC00242C
:10C25000062706AE204600F03FFD002813D005AAB1
:10C2600006A92046059700F0FBFC00280BD0059896
:10C27000062808D1002069464300325C1B19401C87
:10C28000CA540628F8DB641C022CE3DB04A8FFF781
:10C2900041FA00280BD16846007C732807D1E020C2
:10C2A0006946087311480D22083000F04BFA104817
:10C2B0006D1C854200D300250E490F4A09680A20EB
:10C2C00000BF00BF00BF00BF00BF00BF00BF00BF76
:10C2D000914200D000BF0138F2D1B8E744E6010036
:10C2E0007C2600207C2800209BE30100E025002024
:10C2F00010270000202600200024F400F8B50304D5
:10C300001B0E0E460093C3B2010E0002001600245D
:10C31000170C404295B2062B5BD21A007A44127970
:10C3200092189744021427423F3C002900D0012173
:10C330000C4629043D46000405430C43304600F0FA
:10C340001DFE2A462146009800F078FCF8BD2348DF
:10C350008068407E002802D12148FEF71DFF30464C
:10C3600000F00CFE2146280401433A46009800F0F4
:10C3700064FCF8BD002900D001210C4600040443F0
:10C38000002907D0002E02D11648FEF705FF3046DF
:10C3900000F0F4FD2146009800F0ACFCF8BD00F080
:10C3A0004EFCF8BD00F03CFDF8BD0F484168491C4B
:10C3B000416001780029F7D08168002902D0491E28
:10C3C0008160F8BD00F0AEFE0028E8D100F080FDED
:10C3D000F8BD0648FEF7E0FEF8BD00002426002068
:10C3E000B5030500C3030500AC2A0020E3030500E4
:10C3F00002490F220A70C8607047000024260020FE
:10C4000009480A4A4168491C416012681368994208
:10C4100008D3002343600168491C016052689142BF
:10C4200000D3036070470000502600204C260020F7
:10C4300070B5084D064C296820684968884202D3C7
:10C440000548FEF7A9FE286821688068405C70BD39
:10C45000502600204C260020B20001000148006850
:10C4600070470000502600200148406870470000D7
:10C470005026002010B5040002D10548FEF78CFEBE
:10C4800004480021046004480160416010BD0000C0
:10C490002A0001004C2600205026002010B504463A
:10C4A000054800684068A04202D80448FEF774FEC0
:10C4B0000348046010BD00004C260020B9000100B4
:10C4C0005026002010B50446054800680068A042C8
:10C4D00002D80448FEF760FE0348446010BD000027
:10C4E0004C260020C50001005026002001218907AC
:10C4F00040180068002800D00120704700280FD0A5
:10C500000849094A096800BF00BF00BF00BF00BF5B
:10C5100000BF00BF00BF914200D000BF0138F2D180
:10C5200070470000202600200024F4008207D30E6C
:10C53000FF229A408907090E10B59940002808DBB0
:10C540008408104BA400E418236893430B43236032
:10C550000AE003071B0F083B9C080B4BA400E318E1
:10C56000DC6994430C43DC61C206D20E0121914088
:10C57000002801DB054A1160002801DB0448016046
:10C5800010BD000000E400E000ED00E080E200E00B
:10C5900000E100E0F8B506460F4600791C2148434B
:10C5A0001A4915464418E07E002801D00820F8BD3D
:10C5B00039463046FFF702F9656038692060284641
:10C5C0000025002813D0FF223068397F1D328550A6
:10C5D000FF22306845328550032330681B020C4A25
:10C5E000C01842603068000B40B2FFF79FFF052281
:10C5F00030680421120280180160E5752576A57562
:10C600000121E1762846A576F8BD0000902A002099
:10C6100080000200F8B503791C246343134C812584
:10C620001C19032766680023AD003F02002E02D0CC
:10C630000668F619B560E67D002E0ED0237E002B2D
:10C6400007D06168002902D00068C0194560112038
:10C65000F8BD21610123227604E0E2750025E16046
:10C660006576257600F01AF8F8BD0000902A0020C3
:10C6700070B5044600791C21074D48434019807E5F
:10C68000002808D1204601F08CFD20791C220121D0
:10C6900050434019817670BD902A0020F8B50446B9
:10C6A00000791C21484326494518A87E184302D129
:10C6B000204601F076FD6868002808D08121032219
:10C6C000206889001202801841600020F8BDFF2018
:10C6D0004530216800220A50FF212531206801F0F1
:10C6E0000FFD0646FF210931206801F009FD009089
:10C6F000FF214531206801F003FD074600983843CB
:10C700003043E9D03046384307D12946206801F04C
:10C710002BFDE87D697E8842DED80020E875002E7A
:10C7200001D00320F8BD002F01D00F20F8BDA97E55
:10C7300001200029216801D00860C6E74860C4E7ED
:10C74000902A002070B505460C4600791C2148430C
:10C7500008494318284600F055F8002801D0112058
:10C7600070BD9A7500209C609882284600F004F8FD
:10C7700070BD0000902A0020F8B5044600791C2105
:10C7800048431F4900264518FF2720681D37C6511A
:10C790002068012181602946206801F0E3FD696875
:10C7A000002913D027E0FF270137FF211D31206822
:10C7B00001F0A6FC002802D1A88AB842F5D1A88AC7
:10C7C000B84203D02946206801F0CCFDA88AA97D93
:10C7D0008842E8D3A98AC81FF9380ED0FF271D3731
:10C7E0003946206801F08CFC0028F9D0206801212E
:10C7F000C1600020A8753046F8BD0F26F9E700009B
:10C80000902A002000791C21484303494018807D6C
:10C81000002800D001207047902A002070B51B4CE2
:10C8200005462068062802D31948FEF7B5FC2168A2
:10C830000020184E00290BD98200B258AA4203D119
:10C840001548FEF7A9FC0EE0401CC0B28842F3D3A5
:10C850001248002122224A431318AB4206D0491C39
:10C86000C9B20629F6D30E48FEF796FC20680D499A
:10C8700080003058884202D00B48FEF78DFC2068BB
:10C8800081007550401C206070BD0000782600209B
:10C89000850003005C2D0020F6000300742D0020AD
:10C8A00086000300ADDEADDE8800030010B504464F
:10C8B000102802D30348FEF76FFC600002492018DD
:10C8C000085C10BDC80003006C2C002070B4002070
:10C8D0001F4A01464300C3189C186170A170D154CF
:10C8E000401C1028F6D300211A4D1B4BDE240A46AB
:10C8F000222042438E0050199851AC5444708470E9
:10C90000C470047144718471C4710472447284727D
:10C91000C472047344738473C4730474447484745D
:10C92000C474047544758475C4750476447684763D
:10C93000C476047744778477C47720300470491C28
:10C9400044700629D3D305490620086070BC70479F
:10C950006C2C0020742D00205C2D002078260020F7
:10C9600070B500250446102802D30F48FEF714FCCA
:10C9700060000E492218885C002813D00C20444324
:10C980000B48231850188478A4001D598478641C1F
:10C9900084708478801C032C01D300230370885C8E
:10C9A000401E8854284670BDA60003006C2C002051
:10C9B0009C2C0020F8B50D460446102902D32048CF
:10C9C000FEF7EAFB1F4900200968064600290CD93A
:10C9D0001D4A8300D358A34203D11C48FEF7DCFB59
:10C9E0000EE0401CC0B28842F3D319480022222135
:10C9F00051430B18A34206D0521CD2B2062AF6D3DA
:10CA00001448FEF7C9FB6800134A2918505C032834
:10CA100014D20C20454311482B1888184578AD00D6
:10CA20005C514478641C44704478401C032C00D34F
:10CA30000670505C401C50540120F8BD0020F8BD29
:10CA40008F000300782600205C2D0020F6000300F4
:10CA5000742D0020900003006C2C00209C2C0020E2
:10CA600010B50446102802D30948FEF795FB600074
:10CA700021180848425C002A08D00C225443064A78
:10CA8000A218081880788000105810BD002010BD32
:10CA9000B70003006C2C00209C2C002070B51649B8
:10CAA00000240A68002A25D09000144B144DC018A9
:10CAB0008038C46F521EC5670A600021002A0BD956
:10CAC00088001D58A54203D10E48FEF765FB0EE015
:10CAD000491CC9B29142F3D30B48002122224A4398
:10CAE0001318A34206D0491CC9B20629F6D3074839
:10CAF000FEF752FB204670BD782600205C2D0020FA
:10CB0000ADDEADDEF6000300742D00207D000300D5
:10CB10000048704748A000400048704740A10040CE
:10CB200001480078704700005826002070B5114871
:10CB300001254560C560104E0024B4600F48456073
:10CB40000F484068002802D00E48FEF725FB002061
:10CB50000D49C04388600D480460042030610C48D2
:10CB6000446005704470847008150A4908600A49D9
:10CB7000086070BD00A0004000A5004040A000403B
:10CB800040A500403500040000A3004040A1004043
:10CB90005826002080E200E000E100E00349012087
:10CBA00008600349002008707047000000A00040A2
:10CBB0005826002010B4074801214160C1600022BE
:10CBC0000548064C426042708B02236082700170FF
:10CBD00010BC704700A000405826002080E200E012
:10CBE00001484078704700005826002070B5520078
:10CBF0000A439900049D0A432902059E0A43310411
:10CC000005240A432407800007210019090240185F
:10CC1000026070BD1CB500220B46009211460192C5
:10CC2000FFF7E4FF1CBD1CB5002100910B4601225B
:10CC300001911146FFF7DAFF1CBD7047704770473E
:10CC400006488168002903D1022101700020704745
:10CC500010B500F053F9012010BD0000242600207B
:10CC6000F8B516460F46044600F092F9184D002814
:10CC70000CD0002F0ED0204600F068FA0078316802
:10CC800081420BD2062028700020F8BD0B202870AE
:10CC90000020F8BD032028700020F8BD204600F0D9
:10CCA0004BFA04000CD0A01C0AD02278A11C3846F4
:10CCB0003260FEF73BFA204600F060F90120F8BD33
:10CCC0000448FEF769FA0F2028700020F8BD000024
:10CCD000242600200501050010B5082804D30449C6
:10CCE00004200870401F10BD00F052F910BD000074
:10CCF0002426002070470000F1B5454D82B0002485
:10CD00002C704448EC60046044608460424800F049
:10CD100043F9A8600125002874D03D4F407E3F496B
:10CD200002267A68012817D0102A17D8100015D0CB
:10CD30000846FEF7FBF93948796800F021FA01202E
:10CD40000090029800280DD001280FD002280FD0A3
:10CD50000520387000200FE03E7001E00720387099
:10CD60000020EDE7012000F06FFA04E0022000E06F
:10CD7000002000F069FA012000990840009004208A
:10CD800000F0E8F9224900208968497E002903D093
:10CD90001F482746067002E000F0ECF92F461C49B8
:10CDA000009889680740497E0020002903D0184870
:10CDB0000670204602E000F065FA28460740144855
:10CDC0008068407E002803D011480670204603E0AA
:10CDD000012000F0EFF928460D4907408A6800203D
:10CDE000527E002A01D00E7002E000F055FA2C4667
:10CDF0003C40012000F0B0F8002C03D0012003B02B
:10CE0000F0BDFFE702480570002003B0F0BD000050
:10CE100024260020AC2A0020FDC201003426002078
:10CE20007047000010B5114CA268527E012A11D043
:10CE3000102913D8002911D0002813D00A466160A8
:10CE400001460B48FEF772F90948616800F098F94D
:10CE5000012010BD02202070002010BD072020708E
:10CE6000002010BD03202070002010BD24260020CB
:10CE70003426002010B50D4902468B6802205B7EE7
:10CE8000002B02D00870002010BD002A0AD0012A11
:10CE900005D0022A05D00E200870002010BD002009
:10CEA00000E0012000F086F9012010BD24260020BA
:10CEB00010B506498A68527E002A03D00220087005
:10CEC000002010BD00F0D8F9012010BD242600205C
:10CED00010B5012080F310880748417E002906D054
:10CEE0008178002903D10121817001F067F90020C8
:10CEF00080F3108810BD0000EC2A002070B5114CA2
:10CF0000607E00281CD1FEF7EBFF0F4DA8680028BB
:10CF100002D10E48FEF740F96868002802D10C489B
:10CF2000FEF73AF901F0CAF8002802D00948FEF7E6
:10CF300033F9002001F0D6F80120607601F03EF9C7
:10CF400070BD0000EC2A0020202B00205E020900AA
:10CF50005F0209006602090010B5044604484068F3
:10CF6000002802D10348FEF717F90348047510BDE5
:10CF700044260020F6030900082B002010B50121EB
:10CF800081F3108800F07EFF002080F3108810BD30
:10CF900010B500F08DFF10BDF8B50646012080F3F6
:10CFA0001088544C0025607003202070A5706560C7
:10CFB000A560A581E5812561656125764E48657688
:10CFC000056045608560C560056105754B4F18308B
:10CFD000BD604560FFF7AAFD304600F001FE00F09D
:10CFE00073FF002001F076F83846FFF743FA454A10
:10CFF00043491068FF2633049843106008681A12EA
:10D0000090430860404801684022B14311430160E9
:10D01000012080F310882178012905D06070607E9E
:10D0200000285ED001F0CAF8002080F31088304656
:10D03000364E04223061727735483062354870626E
:10D040003548012101720221417203238372C272A9
:10D050000522027306224273072282730822C273DA
:10D0600005744174012282741E2070614B20C0003F
:10D07000F16070602278022A02D06068002833D004
:10D0800039600F20B060022A02D06268002A2ED0D8
:10D090003960002070830120307670760020307770
:10D0A00000F076FF692030606078012802D01B48CC
:10D0B000FEF772F801202070A5706560A560A5815B
:10D0C000E5812561656125766576FEF709FF012119
:10D0D0001348890201608902016085F310880548C0
:10D0E000F8BD01F029FA9FE7B0683860C9E73860F9
:10D0F000CFE70000EC2A0020082B0020202B002086
:10D1000000E400E008E400E014E400E0B82A0020B5
:10D1100004070A0D05080B0ED82A00203C0209005E
:10D1200080E200E00348407E002801D000207047E4
:10D1300001207047EC2A002010B5012181F31088EE
:10D1400000F0F8FE002181F3108810BD10B500F04A
:10D15000F6FE10BD0549487705498A6907231B0477
:10D160009A43000402438A6170470000B82A0020F5
:10D17000001500400149087670470000B82A0020D9
:10D1800070B50C00054602D10748FEF705F8002DE2
:10D1900002D10648FEF700F805488560446000208B
:10D1A000FFF77CF970BD000048030900490309003E
:10D1B000202B002030B41749174C8874174B18499E
:10D1C000184A194D00280DD0012816D0022807D181
:10D1D00020614B6215488A62C86215484D63086336
:10D1E00030BC7047002020614B6212488A62C862DE
:10D1F00011484D63086330BC7047012020614B62C9
:10D200000E488A62C8620E4808630E48486330BC04
:10D2100070470000D82A0020001500400050007818
:10D22000001700404E0000543E420F8208800C6000
:10D230008864720003800C602264720002800C60BB
:10D2400011646600DEC08F8210B5012181F3108861
:10D2500008490A78824205D04870487E002805D0E7
:10D2600000F0ACFF002080F3108810BD01F064F9DD
:10D27000F8E70000EC2A00200149486070470000F0
:10D28000B82A0020024908740249C86070470000AB
:10D29000D82A002000150040014908777047000097
:10D2A000B82A002070B51248124C4068407D002812
:10D2B00005D0012000F0FEFBA089401CA0810026C3
:10D2C0000D4930464E610D494A680968551A00F00B
:10D2D00009FF6069A84202D30948FDF75DFF606954
:10D2E0000122291A0748FDF75BFF666170BD000047
:10D2F00044260020EC2A002000F50140B82A002036
:10D300004D060900A1E00100F0B5FA48FA4C406969
:10D31000FA4EFB4F87B0002803D1FFF761FC0028CD
:10D3200016D0F44D6868002801D0401E6860287847
:10D33000022802D06968002979D0F1682160A978B3
:10D34000002975D0FFF75CF8FEF7A0FC07B0F0BD30
:10D35000E84800250078012802D0022805D009E01D
:10D3600000F0A0FB002805D0B9E1387804287DD072
:10D3700003287BD0FFF744F8DE484168002901D03C
:10D38000491E41600178022902D04168002919D064
:10D39000F168216004468078002815D0FEF776FCFD
:10D3A00000F016FC022870D303266846002406709D
:10D3B00001940481448144708570C57000F0CCFBF9
:10D3C00007B0F0BDB168E4E701F0B6F8002811D06D
:10D3D0000020766800F086FE6069B04202D3C9483A
:10D3E000FDF7DAFE60690122311AC748FDF7D8FE61
:10D3F0006561D5E7207800287ED0012819D0022861
:10D400007BD0C248FDF7C8FE707E0128C8D12078C5
:10D410000228C5D061680029C2D10127BF070028B2
:10D420006CD001286BD0BA48FDF7B6FEB8E77FE1B3
:10D4300080E100F0C9F900F041FD002826D0708B92
:10D4400000287CD0A189814279D30121002000F0FD
:10D45000ABFC012700F020FD0590A2890492E2892F
:10D46000039200F01FFD69460F7000E037E1059957
:10D4700001916946049A0A81039A4A8148708D7025
:10D48000CD70684600F068FBA7E023E100F0A0FB48
:10D4900002287DD32078022802D06068002804D0BA
:10D4A000FEF7E2FF002832D097E02069FEF7F6FF92
:10D4B0000020FFF707F800F095FD002868D0A5814F
:10D4C000E58100F0EFFC9349C86200F0EBFC01211C
:10D4D00081409048016300F0DFFC8F49086000F054
:10D4E000D5FC8D4948608D48C860FEF7A1FF894989
:10D4F000886000F0E3FC03E0BEE09FE0DCE0C6E013
:10D50000012872D000F0DAFC02285CD058E0307EAE
:10D51000002828D000F066FD00285ED0A581E581B6
:10D5200000F0C0FC7B49C86200F0BCFC01218140D6
:10D530007848016300F0B0FC7749086000E055E0EE
:10D5400000F0A4FC744948607448C860FEF770FF9E
:10D550007049886000F0B2FC012865D000F0AEFC94
:10D5600002285FD02CE0FEF779FF2169884234D190
:10D5700000F038FD002830D0A581E58100F092FC54
:10D580006449C86200F08EFC01218140614800E0DE
:10D5900023E0016300F080FC5F49086000F076FC46
:10D5A0005D4948605D48C860FEF742FF59498860A0
:10D5B00000F084FC012837D000F080FC022831D034
:10D5C0005748FDF7E9FD2DE000F0FAF9FFF7A4FA5E
:10D5D000544908617868406848610120376800F064
:10D5E00081FD6069B84221D34DE01DE0FFF7F8FAF4
:10D5F000002802D04C48FDF7CFFDFEF719FF454942
:10D600008968884202D0E089401CE081FEF710FF63
:10D610004049886000F052FC012805D000F04EFC23
:10D620000228CDD10020CFE70120CDE7606901229B
:10D63000391A3548FDF7B4FD6561E5E60020009034
:10D64000FEF7F6FE33498968884201D1009805E06B
:10D65000FEF7EEFE2F498860012000903978401EC9
:10D66000084201D1FEF798F90020776800F03AFDF2
:10D670006069B842DAD306E00020776800F032FD36
:10D680006069B842D2D31F48FDF786FDCEE700F0AF
:10D6900015FC002800D083E600F0FCFC0028FAD13D
:10D6A000FFF73EFA0128F6D0FFF784FA307F002812
:10D6B0000BD10120786008E0FFF732FA0128EAD0A8
:10D6C000FFF778FA307F0028F3D0002000F00AFD41
:10D6D000656065E61548FDF75FFD07B0F0BD706851
:10D6E00001224108034841610748FDF759FD07B091
:10D6F000F0BD0000EC2A0020202B0020B82A0020DA
:10D70000442600204D060900A1E00100580409004C
:10D710007204090000150040082B00200DBB010019
:10D720001E06090000F501400A0509008C040900E5
:10D73000B16803E6022809D0FEF762FE0020746893
:10D7400000F0D0FC6869A04223D31FE03878042899
:10D7500029D0032827D0FEF753FE0024FEF768FEE9
:10D76000154FB968884203D0FEF762FEB860012405
:10D770001248641E0078044201D1FEF70DF9002022
:10D78000746800F0AFFC6869A04202D30C48FDF752
:10D7900003FD68690122211A0A48FDF701FD0020F6
:10D7A000686107B0F0BD70680122410805486961F1
:10D7B000FDF7F6FC07B0F0BD001500404426002040
:10D7C0004D060900A1E00100F8B51C4802270760DA
:10D7D0001B49401788601B4807601B4800240460F1
:10D7E0001A4E34611A49012008618861194D287860
:10D7F00001281CD002281ED003281CD00120FDF7D0
:10D8000069FC346110482C70046000200C49C0434E
:10D8100088600C480760F4600320687034603461ED
:10D8200074606C602C750C486C750760F8BD062040
:10D83000FDF750FCE5E70220E1E7000080E100E0B1
:10D840000013004080E200E00012004000110040A0
:10D85000001000402C2B002000E100E0F8B5334818
:10D86000354A06690327324B0025324C1168012ED8
:10D8700005D0022E48D03148FDF78EFCF8BD0426B5
:10D8800006708669761C86611F602D4E0223336008
:10D89000E5602560256165602A4B08265E60097D8C
:10D8A000002910D0284EB168284F8175386840078C
:10D8B00002D42748FDF770FCE56126490120886104
:10D8C0000420B860B5602068002802D02248FDF727
:10D8D00063FCE068002802D02048FDF75DFC20488A
:10D8E0000068800702D51F48FDF756FC124C2068DF
:10D8F000C068002800D080472068417D0029BDD045
:10D90000194900684860F8BDE560256125606560DB
:10D910001D6000230B4A0570DB4393604770456030
:10D92000057508690028EED08047F8BD2C2B002033
:10D93000001200400011004060260020E7020A00AB
:10D9400080E200E0001300404015004000F5014077
:10D95000AD020A0000100040B6020A00B7020A0039
:10D9600000E200E0B8020A000015004010B50D49C1
:10D97000022408600C4804600D480C4941620D49BE
:10D980000162FFF721FF00210B4803220170427062
:10D990004160016101754175817508480460064860
:10D9A00010BD00006026002080E100E0141000405F
:10D9B00000F50140041100402C2B002000E100E0A4
:10D9C000F8B505462A4900012A4C4718207D002851
:10D9D00002D02948FDF7E0FB0026002D2AD0012DBA
:10D9E00028D0022D26D02548FDF7D6FB2448FDF788
:10D9F000D3FB002123486675C94381602249022078
:10DA00000860224865700068032D0168A1604068C5
:10DA10002661A661E0603A6862601BD21C4B3A7ACC
:10DA20001A60FB7A1B4A002B08D05060506800280F
:10DA30000DD109E020780028DBD0D7E7516050688D
:10DA4000002804D1144800E01448FDF7A5FB0D4858
:10DA5000797A41600D480068007D002805D0022DCC
:10DA600003D10F49A6750420486001206075F8BDF8
:10DA70007CE601002C2B0020DB000A00F9020A00E2
:10DA8000DD000A000013004080E200E06026002074
:10DA9000001200400015004000010A0005010A00C4
:10DAA00000F5014002484068012800D0002070477E
:10DAB00000110040F8B51E4C074665781D49280145
:10DAC0004618607D012802D01B48FDF765FB207DCC
:10DAD000002802D01948FDF75FFB012000212075C6
:10DAE0006175032D0AD2002F01D131680860022D23
:10DAF00001D0012D05D1B07A207002E01048FDF769
:10DB00004BFB10480068007D00280FD0022D0DD17E
:10DB10000D484068400702D40C48FDF73DFB0C4817
:10DB20004068002802D10B48FDF736FBF8BD000025
:10DB30002C2B00207CE6010021010A0022010A00B2
:10DB40003A010A006026002000F5014040010A0069
:10DB50000015004041010A0070B5184D04462868C0
:10DB6000002802D11648FDF717FB164E70680A28E8
:10DB700002D31548FDF710FBE86F0C21484341190B
:10DB80002078087160784871A0788871E078C87151
:10DB900060688860208988816089C8817068401CBD
:10DBA0007060E86F401CE867E86F0A2801D3002026
:10DBB000E867012005490005086070BD502B002072
:10DBC00034000B00D02B002035000B0000E200E0F9
:10DBD000024840680A21081AC0B27047D02B0020C2
:10DBE00010B5040002D10748FDF7D6FA06490C60CB
:10DBF0000020C86705490860486001200449000505
:10DC0000086010BD29000B00502B0020D02B0020F5
:10DC100000E100E0FFB55A4885B0C06F032500273A
:10DC20000F9E0C46002802D15648FDF7B5FA54481D
:10DC30000078032802D05448FDF7AEFA5048C06F70
:10DC400041785248CA070190002A1ED1807C0028E2
:10DC50001BD000200090059800286ED00798490737
:10DC60000002890F000A464B09060843A200D1189A
:10DC7000896B00220E9B88421A60326003905ED04E
:10DC80003F4FF86F002805D101E00120E2E740484E
:10DC9000FDF782FA3A482146C06F08310291FEF73B
:10DCA00089FE002804D0002035490127C86700E01C
:10DCB0000027009838400090002F40D00298810043
:10DCC0002F4809180398886108990F4236D03148C7
:10DCD000005D002832D02046FEF7E8FD002802D182
:10DCE0002D48FDF759FA2046FEF73AFE029000282B
:10DCF00011D001982546007C002805D020480069F5
:10DD0000A84201D100F020F91D49002049198031B5
:10DD10000870204948550E99029808600E9900290C
:10DD200009D0002802D11D48FDF736FA0021194814
:10DD30000225015503E01A48F6E712E00125009894
:10DD400000280AD02046FEF78BFE3060002803D062
:10DD500010480121015501E012483060002F01D028
:10DD600006E00425064CE06FFEF758FD0020E06752
:10DD700003490020087000F0E7F8284609B0F0BD1C
:10DD8000D82B00205B010C005C010C00582C0020FB
:10DD90006F020C006426002091010C0096010C001B
:10DDA0009A010C00302C0020F8B52D4C0646207846
:10DDB0000D46012804D0022802D02A48FDF7ECF9CC
:10DDC000002E28D02078012802D02748FDF7E4F95A
:10DDD000E068002802D12548FDF7DEF9E068007808
:10DDE000002804D0E06F6668002805D101E0002714
:10DDF00012E01F48FDF7D0F931460831E06FFEF719
:10DE0000D9FD002802D00020E06702E01948FDF7A4
:10DE1000C3F9022700E00427002D1AD065682846C0
:10DE2000FEF79EFD06000ED01348007C002804D0AB
:10DE30002069A84201D100F087F8002061198031E3
:10DE400008700E494855A068B04202D00C48FDF752
:10DE5000A3F90020207000F077F83846F8BD0000E4
:10DE6000D82B0020FC000C0002010C0003010C0068
:10DE70006F020C000E010C00582C002064260020BC
:10DE80001E010C0010B5FEF7C9FC10BD0148C068AA
:10DE900070470000D82B00200148806870470000C0
:10DEA000D82B00200148406870470000D82B002084
:10DEB00010B50830FEF7FAFC10BD000001480078EC
:10DEC00070470000D82B002070B5FEF7FFFC002241
:10DED000144C154E10460106930001431B1999611D
:10DEE000134605060146083329439D002D19A961F3
:10DEF000A11880310870E11880310870B054521CAC
:10DF0000082AE8D320706060A060E06020610749C3
:10DF100060610874064A48741076E06701208874CE
:10DF200070BD0000D82B002064260020582C002053
:10DF3000182C002010B50830FEF712FD10BD10B5EA
:10DF40000830FEF78DFD10BDF8B50F4C2078002885
:10DF500019D10E4E307C002815D1082501276069A3
:10DF6000FEF7A4FC002802D0377460692061606964
:10DF7000401C6061082801D100206061307C0028CD
:10DF800001D16D1EEBD1F8BDD82B0020582C0020FC
:10DF90000149887470470000582C002070B50F4D5F
:10DFA0002878002802D00E48FDF7F6F8E86F002820
:10DFB00002D1FEF773FDE86704000CD0FF2020704B
:10DFC0006078062108436070FF222021A01CFDF725
:10DFD000BFF803202870204670BD0000D82B002019
:10DFE0003B010C0070B5264C2078002802D0254853
:10DFF000FDF7D2F8244D0026287C002825D0206982
:10E000006060FEF72DFDA060002802D11F48FDF7DB
:10E01000C3F8A0684078C00705D1A87C002802D0CA
:10E020000220E6600FE060680830FEF73FFC03283E
:10E030000BD2E06F002802D1FEF730FDE067E06010
:10E04000002802D00120207002E02078002816D09D
:10E05000A068002802D10E48FDF79EF82069606094
:10E0600080000119C87EF923401CC876A268800789
:10E070005178400F1940014351702E74012070BD3A
:10E08000D82B0020C3000C00582C0020C9000C0025
:10E09000E7000C000148007C70470000582C00206D
:10E0A000044801788170417801708800024908585D
:10E0B000004700006C2600207026002001480078F0
:10E0C000704700006C26002001484078704700002F
:10E0D0006C26002002498870487008707047000064
:10E0E0006C26002010B50446022802D30248FDF732
:10E0F00053F80248447010BD2A000D006C26002021
:10E100004058002800D001207047032212028018D6
:10E110004068084000D001207047000070B501241D
:10E120000D4960040860BFF34F8FBFF36F8F0B4939
:10E1300040108860094940398860094D6C602F2083
:10E14000FEF7DCF9AC60074D00242F20AC60FEF731
:10E15000D5F9AC7070BD000080E100E040130140D3
:10E1600000100140F025002030B5FF220523CD7DB1
:10E17000002409321B02C318002D8450986905D071
:10E180004B7ECA68D054487E401C487630BD1FB5CF
:10E1900001246B461C701972019206C868469047AC
:10E1A0001FBDFF23253302680021D150FF230268E1
:10E1B0000933D150006801210160704710B5FEF7A6
:10E1C000AFFC012820D1FFF77FFF002802D00F48C5
:10E1D000FCF7E2FF00221E210D48FCF7E1FF0D488D
:10E1E000007F00280ED10C48012141610B4800221C
:10E1F00002608205116000BF00BF00BF00BF016860
:10E200000029FCD0FEF7CAFC10BD00002C06090056
:10E21000A1E00100B82A00200005004000010040F4
:10E22000FEB51F4C0025A768606802906846FDF7A0
:10E230000DFD0190FDF7A0FD06460198002822D0B3
:10E2400000230098616817E00E680A46864202D9EA
:10E25000301A086012E0801BF31800261660D6689A
:10E26000D169B446002E07D0FE183602360A566031
:10E2700066469660D56115460029E5D1284661605D
:10E28000FDF7D0FD06E02846FDF7CCFD002801D1C2
:10E29000002E02D00298FDF7EBFB0020E070FEBDDF
:10E2A000F025002010B50E4B5968002906D00268F1
:10E2B0000C68A24204D8A21A0A60C161586010BD5D
:10E2C0000B4604E00B46C969121B002904D00C68F8
:10E2D0009442F7D3A41A0C600260C161D86110BDEA
:10E2E000F0250020F8B51D4D6C68002C35D01C4879
:10E2F00000274068A968401A0602360A2068B04222
:10E3000018D8361AC7192246107CE46900280FD0A5
:10E3100000201074EB68002B07D091695069984772
:10E32000002805D0FDF7EAF902E0516990698847B5
:10E33000002CE3D129786878814206D1401CC0B214
:10E340006870022801D10020687004490006800D21
:10E3500018310F501520FDF7A7F9F8BDF025002062
:10E3600000150140FF221D32002383508B8A8A68EA
:10E37000D25C8B8A5B1C8B82052109024018C2612A
:10E3800070471FB500226B461A701972816801919F
:10E39000827506C8684690471FBD10B501780029F0
:10E3A00006D0012901D0022902D14068FDF7A6F963
:10E3B00010BD00001CB50178144C012908D00229B9
:10E3C00015D0002921D103206946087068461AE05B
:10E3D000042269460A7040680122007808710B49DE
:10E3E000491CC81DFEF716F90120A0700AE00221A1
:10E3F0006A4611700549C068491C01900122C81D78
:10E40000FEF708F96846616888471CBD10260020A1
:10E41000F0B50C46012185B005464902FFF775FEAF
:10E42000032109026F180026002826D0FF2125317C
:10E430002846FFF765FE00281FD0FF2025302E500C
:10E4400081208000B860A07E002801D10120686092
:10E450000221684601700920C00129180868086077
:10E460000390E17D68460172E0680190E6752676CA
:10E4700006CC6846083C90472DE004212846FFF76B
:10E4800044FE002827D0FF2109312846FFF738FE37
:10E49000002820D021462846FFF766FEE07D617EF9
:10E4A000884218D1207E002807D0617EE268E0759E
:10E4B0002069E060267666760AE0A07E002801D119
:10E4C0000120686081208000B860E675617EE268A6
:10E4D0002046FFF75CFEFF271D3739462846FFF729
:10E4E0000FFE00280FD0A08AA17D884204D22146C9
:10E4F0002846FFF737FF06E0EE51A17D002902D044
:10E500002046FFF73EFFFF27453739462846FFF7ED
:10E51000F7FD00280ED0EE51A07E002801D001208A
:10E520002860E07D002805D0E675617EE26820461F
:10E53000FFF72DFE05B0F0BDF0B53B4E83B030784F
:10E54000717888426DD0002801D1FDF7C9FC707840
:10E55000364D002400281CD10320A860FFF7AEFC34
:10E56000012804D0022802D0032812D104E000219F
:10E570000846FFF719FC07E0002300941A461946E5
:10E5800018460194FFF746FB042802D02848FCF700
:10E5900003FE6C61FFF718F9264D274F2C606C6065
:10E5A0002C61AC60EC603078012802D0022809D0E0
:10E5B0001CE0FFF783FC002815D000210846FFF778
:10E5C000F3FB10E0FFF700F91C482C610470FFF723
:10E5D00075FC032807D1002300941A4619461846F3
:10E5E0000194FFF717FB3078022802D070680028EA
:10E5F00013D01348F96801607078307004256846BC
:10E600000023057001930381438143708470C470BB
:10E61000FFF7A2FA012003B0F0BD0948B968016014
:10E62000EAE7002003B0F0BDEC2A002000F501402D
:10E63000E8010900082B0020B82A00204426002009
:10E64000202B002019000000180000001600000018
:10E65000170000000000000000000000FFFFFFFFA7
:10E66000FFFFFFFFFFFFFFFFFFFFFFFF00000000B6
:10E670000000000000E0D70103000000001000408F
:10E6800010110040031000000100000000100040C5
:10E69000000000000B020400000000000410004015
:10E6A000000000000708030100000000CCE60100A4
:10E6B000E02500209C000000C0B6010068E70100D2
:10E6C0007C260020C40F0000D0B6010004192A3FA8
:10E6D0004D2100000020004000000000000000006C
:10E6E000000000000000000000000000000000002A
:10E6F000000000000000000000000000000000001A
:10E700000000000000200040000000000024F40091
:10E7100000000000050000000000000000000000F4
:10E7200004192A3F4D000000000000000000000016
:10E7300000000000000000000000000000000000D9
:10E7400000000000000000000000000000000000C9
:10E7500000000000000000000000000009D30100DC
:08E76000A5D201000000000039
:040000050001B0C185
:00000001FF
